{"abi":[{"type":"constructor","inputs":[{"name":"_width","type":"uint256","internalType":"uint256"},{"name":"_height","type":"uint256","internalType":"uint256"}],"stateMutability":"nonpayable"},{"type":"function","name":"height","inputs":[],"outputs":[{"name":"","type":"uint256","internalType":"uint256"}],"stateMutability":"view"},{"type":"function","name":"pixelMap","inputs":[{"name":"","type":"uint256","internalType":"uint256"},{"name":"","type":"uint256","internalType":"uint256"}],"outputs":[{"name":"r","type":"uint8","internalType":"uint8"},{"name":"g","type":"uint8","internalType":"uint8"},{"name":"b","type":"uint8","internalType":"uint8"}],"stateMutability":"view"},{"type":"function","name":"readPixel","inputs":[{"name":"x","type":"uint256","internalType":"uint256"},{"name":"y","type":"uint256","internalType":"uint256"}],"outputs":[{"name":"","type":"uint8","internalType":"uint8"},{"name":"","type":"uint8","internalType":"uint8"},{"name":"","type":"uint8","internalType":"uint8"}],"stateMutability":"view"},{"type":"function","name":"setPixel","inputs":[{"name":"x","type":"uint256","internalType":"uint256"},{"name":"y","type":"uint256","internalType":"uint256"},{"name":"r","type":"uint8","internalType":"uint8"},{"name":"g","type":"uint8","internalType":"uint8"},{"name":"b","type":"uint8","internalType":"uint8"}],"outputs":[],"stateMutability":"nonpayable"},{"type":"function","name":"width","inputs":[],"outputs":[{"name":"","type":"uint256","internalType":"uint256"}],"stateMutability":"view"}],"bytecode":{"object":"0x608060405234801561000f575f5ffd5b506040516105bd3803806105bd83398101604081905261002e91610163565b5f8211801561003c57505f81115b61009c5760405162461bcd60e51b815260206004820152602760248201527f576964746820616e6420686569676874206d75737420626520677265617465726044820152660207468616e20360cc1b606482015260840160405180910390fd5b600182905560028190555f5b60025481101561015b575f805460010181558080525b600154811015610152575f82815481106100da576100da610185565b5f918252602080832060408051606081018252858152808401868152918101868152929094018054600181810183559187529390952093519390920180549251915160ff908116620100000262ff0000199382166101000261ffff1990951695909116949094179290921716919091179055016100be565b506001016100a8565b505050610199565b5f5f60408385031215610174575f5ffd5b505080516020909101519092909150565b634e487b7160e01b5f52603260045260245ffd5b610417806101a65f395ff3fe608060405234801561000f575f5ffd5b5060043610610055575f3560e01c8063067d13d2146100595780630ef26743146100955780639393d8b6146100ac5780639ededf77146100c1578063f8213ec2146100ca575b5f5ffd5b61006c610067366004610345565b6100dd565b6040805160ff948516815292841660208401529216918101919091526060015b60405180910390f35b61009e60025481565b60405190815260200161008c565b6100bf6100ba36600461037a565b6101cc565b005b61009e60015481565b61006c6100d8366004610345565b6102fc565b5f5f5f600154851061012d5760405162461bcd60e51b8152602060048201526014602482015273496e76616c6964207820636f6f7264696e61746560601b60448201526064015b60405180910390fd5b60025484106101755760405162461bcd60e51b8152602060048201526014602482015273496e76616c6964207920636f6f7264696e61746560601b6044820152606401610124565b5f5f8581548110610188576101886103cd565b905f5260205f200186815481106101a1576101a16103cd565b5f9182526020909120015460ff80821698610100830482169850620100009092041695509350505050565b60015485106102145760405162461bcd60e51b8152602060048201526014602482015273496e76616c6964207820636f6f7264696e61746560601b6044820152606401610124565b600254841061025c5760405162461bcd60e51b8152602060048201526014602482015273496e76616c6964207920636f6f7264696e61746560601b6044820152606401610124565b60405180606001604052808460ff1681526020018360ff1681526020018260ff168152505f8581548110610292576102926103cd565b905f5260205f200186815481106102ab576102ab6103cd565b5f9182526020918290208351910180549284015160409094015160ff908116620100000262ff0000199582166101000261ffff19909516919093161792909217929092169190911790555050505050565b5f828154811061030a575f80fd5b905f5260205f2001818154811061031f575f80fd5b5f9182526020909120015460ff8082169350610100820481169250620100009091041683565b5f5f60408385031215610356575f5ffd5b50508035926020909101359150565b803560ff81168114610375575f5ffd5b919050565b5f5f5f5f5f60a0868803121561038e575f5ffd5b85359450602086013593506103a560408701610365565b92506103b360608701610365565b91506103c160808701610365565b90509295509295909350565b634e487b7160e01b5f52603260045260245ffdfea2646970667358221220a0f76a101b9289cc3de53b0af08296ea63808cacd8940c4d022826bd0c15cc0564736f6c634300081c0033","linkReferences":{}},"methodIdentifiers":{"height()":"0ef26743","pixelMap(uint256,uint256)":"f8213ec2","readPixel(uint256,uint256)":"067d13d2","setPixel(uint256,uint256,uint8,uint8,uint8)":"9393d8b6","width()":"9ededf77"},"id":18}